:100000000C9462000C948A000C948A000C948A0070
:100010000C948A000C948A000C948A000C948A0038
:100020000C948A000C948A000C948A000C948A0028
:100030000C948A000C948A000C948A000C948A0018
:100040000C942F030C948A000C94FD020C94D7029C
:100050000C948A000C948A000C948A000C948A00F8
:100060000C948A000C948A000000000024002700F1
:100070002A0000000000250028002B0000000000DE
:1000800023002600290004040404040404040202DA
:100090000202020203030303030301020408102007
:1000A0004080010204081020010204081020000012
:1000B0000008000201000003040700000000000027
:1000C0000000120511241FBECFEFD8E0DEBFCDBF68
:1000D00011E0A0E0B1E0E8E4FDE002C005900D927F
:1000E000A631B107D9F721E0A6E1B1E001C01D9228
:1000F000AC3BB207E1F710E0C2E6D0E004C02197C4
:10010000FE010E949706C136D107C9F70E94BE03BF
:100110000C94A2060C940000CF92DF92EF92FF9213
:100120000F931F93CF93DF936C017A018B01C0E093
:10013000D0E0CE15DF0581F0D8016D918D01D6019B
:10014000ED91FC910190F081E02DC6010995892B7C
:1001500011F02196EECF7E01C701DF91CF911F9163
:100160000F91FF90EF90DF90CF900895089580E079
:1001700090E00895FC01538D448D252F30E0842FAD
:1001800090E0821B930B541710F0CF9608950197BF
:100190000895FC01918D828D981761F0828DDF01A9
:1001A000A80FB11D5D968C91928D9F5F9F73928F6A
:1001B00090E008958FEF9FEF0895FC01918D828D5F
:1001C000981731F0828DE80FF11D858D90E008952C
:1001D0008FEF9FEF0895FC01918D228D892F90E084
:1001E000805C9F4F821B91098F73992708958FE13F
:1001F00091E00E94EB0021E0892B09F420E0822F9E
:100200000895FC01848DDF01A80FB11DA35ABF4FD3
:100210002C91848D90E001968F739927848FA68905
:10022000B7892C93A089B1898C91837080648C9359
:10023000938D848D981306C00288F389E02D808108
:100240008F7D80830895EF92FF920F931F93CF933A
:10025000DF93EC0181E0888F9B8D8C8D981305C016
:10026000E889F989808185FD26C0F62E0B8D10E086
:100270000F5F1F4F0F731127E02E8C8DE8120CC0FB
:100280000FB607FCFACFE889F989808185FFF5CFA1
:10029000CE010E940101F1CF8B8DFE01E80FF11D0F
:1002A000E35AFF4FF0829FB7F8940B8FEA89FB89DE
:1002B000808180620AC09FB7F894EE89FF896083CD
:1002C000E889F98980818370806480839FBF81E0A1
:1002D00090E0DF91CF911F910F91FF90EF900895E3
:1002E000CF93DF93EC01888D8823C9F0EA89FB89DD
:1002F000808185FD05C0A889B9898C9186FD0FC0D4
:100300000FB607FCF5CF808185FFF2CFA889B989A8
:100310008C9185FFEDCFCE010E940101E7CFDF91E7
:10032000CF91089580E090E0892B29F00E94F7009A
:1003300081110C940000089590E0FC01E255FF4FFC
:100340002491FC01E656FF4F3491FC01EA57FF4F20
:10035000E491EE2309F43CC0222339F1233091F0DB
:1003600038F42130A9F0223001F584B58F7D12C018
:10037000273091F02830A1F02430B9F4809180002A
:100380008F7D03C0809180008F77809380000DC0A7
:1003900084B58F7784BD09C08091B0008F7703C08A
:1003A0008091B0008F7D8093B000F0E0EE0FFF1FD2
:1003B000EE58FF4FA591B4919FB7F894611104C016
:1003C0008C913095382302C0EC913E2B3C939FBF1B
:1003D0000895CF93DF9390E0FC01E656FF4F249100
:1003E000FC01EA57FF4F8491882361F190E0880F68
:1003F000991FFC01E859FF4FC591D491FC01EE58BB
:10040000FF4FA591B491611109C09FB7F8948881FD
:10041000209582238883EC912E230BC0623061F4F7
:100420009FB7F8948881322F309583238883EC918D
:100430002E2B2C939FBF06C08FB7F894E8812E2BEC
:1004400028838FBFDF91CF9108953FB7F8948091B3
:100450001B0190911C01A0911D01B0911E0126B5B8
:10046000A89B05C02F3F19F00196A11DB11D3FBFEC
:10047000BA2FA92F982F8827820F911DA11DB11D7A
:10048000BC01CD0142E0660F771F881F991F4A9576
:10049000D1F708958F929F92AF92BF92CF92DF9241
:1004A000EF92FF926B017C010E9425024B015C01DF
:1004B000C114D104E104F104F1F00E942502DC0131
:1004C000CB0188199909AA09BB09883E9340A10567
:1004D000B10570F321E0C21AD108E108F10888EEF5
:1004E000880E83E0981EA11CB11CC114D104E10444
:1004F000F10419F7DDCFFF90EF90DF90CF90BF9020
:10050000AF909F908F9008958F929F92AF92BF92DD
:100510000F931F93CF93DF93CDB7DEB7A1970FB69D
:10052000F894DEBF0FBECDBF19A2423008F44AE0F6
:100530008E010F5D1F4F842E912CA12CB12CA50193
:1005400094010E947506E62FB901CA0101501109F4
:10055000EA3014F4E05D01C0E95CD801EC93232B90
:10056000242B252B61F70115110571F0F80101907D
:100570000020E9F73197AF01401B510BB8018FE123
:1005800091E00E948C0002C080E090E0A1960FB63E
:10059000F894DEBF0FBECDBFDF91CF911F910F91B9
:1005A000BF90AF909F908F9008950E949D061F92DC
:1005B0000F920FB60F9211242F933F934F935F9397
:1005C0006F937F938F939F93AF93BF93EF93FF931B
:1005D0008FE191E00E940101FF91EF91BF91AF91F6
:1005E0009F918F917F916F915F914F913F912F914B
:1005F0000F900FBE0F901F9018951F920F920FB67D
:100600000F9211242F938F939F93EF93FF93E09179
:100610002F01F09130018081E0913501F091360198
:1006200082FD12C09081809138018F5F8F7320917D
:100630003901821751F0E0913801F0E0E15EFE4FA0
:10064000958F8093380101C08081FF91EF919F9138
:100650008F912F910F900FBE0F901F9018951F92A2
:100660000F920FB60F9211242F933F938F939F9366
:10067000AF93BF938091170190911801A091190138
:10068000B0911A013091160123E0230F2D3720F489
:100690000196A11DB11D05C026E8230F0296A11DDC
:1006A000B11D209316018093170190931801A09318
:1006B0001901B0931A0180911B0190911C01A09126
:1006C0001D01B0911E010196A11DB11D80931B015A
:1006D00090931C01A0931D01B0931E01BF91AF9197
:1006E0009F918F913F912F910F900FBE0F901F9070
:1006F0001895CF92DF92EF92FF920F931F93E82FFE
:10070000F92F05C0015011092109310961F19081CA
:1007100096239417B9F305C0015011092109310935
:1007200011F1908196239413F7CFC12CD12CE12C99
:10073000F12C0AC08FEFC81AD80AE80AF80A0C157B
:100740001D052E053F0579F080818623841791F3DE
:100750006C2D7D2D8E2D9F2D1F910F91FF90EF9071
:10076000DF90CF90089560E070E080E090E01F910E
:100770000F91FF90EF90DF90CF900895789484B51B
:10078000826084BD84B5816084BD85B5826085BD8D
:1007900085B5816085BD80916E00816080936E001B
:1007A000109281008091810082608093810080910D
:1007B00081008160809381008091800081608093BE
:1007C00080008091B10084608093B1008091B0007E
:1007D00081608093B00080917A00846080937A0079
:1007E00080917A00826080937A0080917A008160A3
:1007F00080937A0080917A00806880937A001092CA
:10080000C100E0912F01F091300182E08083E091FE
:100810002B01F0912C011082E0912D01F0912E011D
:100820008FEC808310923701E0913301F091340115
:1008300086E08083E0913101F09132018081806116
:100840008083E0913101F091320180818860808362
:10085000E0913101F0913201808180688083E091E4
:100860003101F091320180818F7D808361E084E0ED
:100870000E94E90161E085E00E94E90161E086E013
:100880000E94E90161E087E00E94E90161E088E0FF
:100890000E94E90161E089E00E94E90161E082E0F3
:1008A0000E94E90160E083E00E94E901C3E2D0E038
:1008B0009DE9E92E90E0F92E29E8C22E20E0D22E03
:1008C00060E082E00E949C0162E070E080E090E0E5
:1008D0000E944A0261E082E00E949C01CE010197E1
:1008E000F1F760E082E00E949C01F7016491F6015B
:1008F0008491E82FF0E0EE0FFF1FE458FF4F859141
:10090000949100E412E42FE030E0462F0E94790336
:10091000611571058105910539F0DC01CB01019666
:10092000A11DB11DBF7003C080E090E0DC01BC01DF
:10093000990F880B990B0E94E9052CE53FE844E6E6
:1009400052E40E943F050E94B1054B015C016B30EF
:100950007105F4F061E084E00E949C0160E085E0B4
:100960000E949C0161E088E00E94E90161E088E06A
:100970000E949C0161E086E00E949C0160E087E0AB
:100980000E949C0161E089E00E94E90161E01DC0D4
:1009900060E084E00E949C0160E085E00E949C0190
:1009A00061E088E00E94E90160E088E00E949C012B
:1009B00060E086E00E949C0160E087E00E949C016C
:1009C00061E089E00E94E90160E089E00E949C0109
:1009D000092C000CAA08BB08B7FE0EC06DE28FE11F
:1009E00091E00E94230166277727CB0168197909D6
:1009F0008A099B094AE003C04AE0C501B4010E948C
:100A0000840242E050E062E171E08FE191E00E94F7
:100A10008C0064EF71E080E090E00E944A020E9446
:100A200092014ECFEFE1F1E01382128288EE93E063
:100A3000A0E0B0E084839583A683B78384E091E04F
:100A40009183808385EC90E09587848784EC90E0A7
:100A50009787868780EC90E0918B808B81EC90E08B
:100A6000938B828B82EC90E0958B848B86EC90E06C
:100A7000978B868B118E128E138E148E08950E9482
:100A800053050C943B060E94340658F00E942D0634
:100A900040F029F45F3F29F00C94240651110C9486
:100AA0006F060C942A060E944C0668F39923B1F352
:100AB000552391F3951B550BBB27AA276217730784
:100AC000840738F09F5F5F4F220F331F441FAA1F18
:100AD000A9F335D00E2E3AF0E0E832D091505040D4
:100AE000E695001CCAF72BD0FE2F29D0660F771F82
:100AF000881FBB1F261737074807AB07B0E809F068
:100B0000BB0B802DBF01FF2793585F4F3AF09E3FEC
:100B1000510578F00C9424060C946F065F3FE4F3C3
:100B2000983ED4F3869577956795B795F7959F5F2F
:100B3000C9F7880F911D9695879597F90895E1E07B
:100B4000660F771F881FBB1F621773078407BA07DA
:100B500020F0621B730B840BBA0BEE1F88F7E09535
:100B600008950E94B8056894B1110C946F06089519
:100B70000E94540688F09F5798F0B92F9927B751D3
:100B8000B0F0E1F0660F771F881F991F1AF0BA9531
:100B9000C9F714C0B13091F00E946E06B1E008951B
:100BA0000C946E06672F782F8827B85F39F0B93F0D
:100BB000CCF3869577956795B395D9F73EF49095E4
:100BC0008095709561957F4F8F4F9F4F0895E89462
:100BD00009C097FB3EF490958095709561957F4F85
:100BE0008F4F9F4F9923A9F0F92F96E9BB27939533
:100BF000F695879577956795B795F111F8CFFAF443
:100C0000BB0F11F460FF1BC06F5F7F4F8F4F9F4F73
:100C100016C0882311F096E911C0772321F09EE8D1
:100C2000872F762F05C0662371F096E8862F70E037
:100C300060E02AF09A95660F771F881FDAF7880F11
:100C40009695879597F9089597F99F6780E870E0E2
:100C500060E008959FEF80EC089500240A94161632
:100C6000170618060906089500240A94121613069A
:100C7000140605060895092E0394000C11F4882328
:100C800052F0BB0F40F4BF2B11F460FF04C06F5F44
:100C90007F4F8F4F9F4F089557FD9058440F551F1A
:100CA00059F05F3F71F04795880F97FB991F61F0EE
:100CB0009F3F79F087950895121613061406551F65
:100CC000F2CF4695F1DF08C0161617061806991FD1
:100CD000F1CF86957105610508940895E894BB27C6
:100CE00066277727CB0197F90895A1E21A2EAA1B50
:100CF000BB1BFD010DC0AA1FBB1FEE1FFF1FA217CC
:100D0000B307E407F50720F0A21BB30BE40BF50BC8
:100D1000661F771F881F991F1A9469F76095709551
:100D2000809590959B01AC01BD01CF010895EE0F18
:100D3000FF1F0590F491E02D099481E090E0F89474
:080D40000C94A206F894FFCF09
:100D48000000000023018C00BA007001EB00C9000C
:060D5800DD000D0A0000A1
:00000001FF
