:100000000C9462000C948A000C948A000C948A0070
:100010000C948A000C948A000C948A000C948A0038
:100020000C948A000C948A000C948A000C948A0028
:100030000C948A000C948A000C948A000C948A0018
:100040000C94E1020C948A000C94AF020C94890287
:100050000C948A000C948A000C948A000C948A00F8
:100060000C948A000C948A000000000024002700F1
:100070002A0000000000250028002B0000000008D6
:10008000000201000003040700000000000000005F
:1000900000000000230026002900040404040404D6
:1000A0000404020202020202030303030303010227
:1000B00004081020408001020408102001020408F6
:1000C0001020E80411241FBECFEFD8E0DEBFCDBF63
:1000D00011E0A0E0B1E0E0EEFCE002C005900D927E
:1000E000A231B107D9F721E0A2E1B1E001C01D9230
:1000F000AA3BB207E1F710E0C2E6D0E004C02197C6
:10010000FE010E946806C136D107C9F70E9470033C
:100110000C946E060C940000AF92BF92CF92DF92C7
:10012000EF92FF920F931F93CF93DF936C017B01AC
:100130008B01040F151FEB015E01AE18BF08C0173D
:10014000D10759F06991D601ED91FC910190F081B0
:10015000E02DC6010995892B79F7C501DF91CF9173
:100160001F910F91FF90EF90DF90CF90BF90AF90D5
:100170000895FC01538D448D252F30E0842F90E0AD
:10018000821B930B541710F0CF9608950197089592
:10019000FC01918D828D981761F0A28DAE0FBF2F5B
:1001A000B11D5D968C91928D9F5F9F73928F90E0B1
:1001B00008958FEF9FEF0895FC01918D828D981720
:1001C00031F0828DE80FF11D858D90E008958FEF5D
:1001D0009FEF0895FC01918D228D892F90E0805C26
:1001E0009F4F821B91098F73992708958DE191E0AC
:1001F0000E94EA0021E0892B09F420E0822F089573
:1002000080E090E0892B29F00E94F60081110C9487
:1002100000000895FC01A48DA80FB92FB11DA35AA9
:10022000BF4F2C91848D90E001968F739927848F16
:10023000A689B7892C93A089B1898C918370806439
:100240008C93938D848D981306C00288F389E02DDA
:1002500080818F7D80830895EF92FF920F931F938B
:10026000CF93DF93EC0181E0888F9B8D8C8D981369
:100270001AC0E889F989808185FF15C09FB7F89475
:10028000EE89FF896083E889F989808183708064C1
:1002900080839FBF81E090E0DF91CF911F910F910C
:1002A000FF90EF900895F62E0B8D10E00F5F1F4F1B
:1002B0000F731127E02E8C8D8E110CC00FB607FC2A
:1002C000FACFE889F989808185FFF5CFCE010E94B8
:1002D0000A01F1CFEB8DEC0FFD2FF11DE35AFF4F1B
:1002E000F0829FB7F8940B8FEA89FB898081806246
:1002F000CFCFCF93DF93EC01888D8823B9F0AA8903
:10030000BB89E889F9898C9185FD03C0808186FDD0
:100310000DC00FB607FCF7CF8C9185FFF2CF80811F
:1003200085FFEDCFCE010E940A01E9CFDF91CF9189
:10033000089590E0FC01E458FF4F2491FC01E25540
:10034000FF4F3491FC01E656FF4FE491EE23C9F0D4
:10035000222339F0233001F1A8F4213019F12230A1
:1003600029F1F0E0EE0FFF1FEE58FF4FA591B49179
:100370008FB7F894EC91611126C030953E233C93E1
:100380008FBF08952730A9F02830C9F0243049F7ED
:10039000809180008F7D03C0809180008F77809353
:1003A0008000DFCF84B58F7784BDDBCF84B58F7DB0
:1003B000FBCF8091B0008F778093B000D2CF809137
:1003C000B0008F7DF9CF3E2BDACFCF93DF9390E053
:1003D000FC01E255FF4F249186569F4FFC0184910A
:1003E0008823D1F090E0880F991FFC01E859FF4F56
:1003F000A591B491FC01EE58FF4FC591D4916111C4
:100400000EC09FB7F8948C91E22FE0958E238C93C9
:100410002881E223E8839FBFDF91CF9108958FB7B2
:10042000F894EC91E22BEC938FBFF6CF3FB7F894A2
:100430008091170190911801A0911901B0911A01B2
:1004400026B5A89B05C02F3F19F00196A11DB11D2F
:100450003FBFBA2FA92F982F8827BC01CD01620F6B
:10046000711D811D911D42E0660F771F881F991F26
:100470004A95D1F708958F929F92AF92BF920F93B2
:100480001F93CF93DF93CDB7DEB7A1970FB6F89444
:10049000DEBF0FBECDBF19A2423008F44AE08E0184
:1004A0000F5D1F4F842E912CB12CA12CA50194011E
:1004B0000E944606E62FB901CA01EA3044F5E05D24
:1004C000D801EE938D01232B242B252B79F790E077
:1004D00080E0109769F0FD0101900020E9F7319765
:1004E000AF014A1B5B0BBD018DE191E00E948C00C6
:1004F000A1960FB6F894DEBF0FBECDBFDF91CF91AE
:100500001F910F91BF90AF909F908F900895E95CDD
:10051000D7CF1F920F920FB60F9211242F933F93B4
:100520004F935F936F937F938F939F93AF93BF93FB
:10053000EF93FF938DE191E00E940A01FF91EF910B
:10054000BF91AF919F918F917F916F915F914F91EB
:100550003F912F910F900FBE0F901F9018951F92F3
:100560000F920FB60F9211242F938F939F93EF93B7
:10057000FF93E0912D01F0912E018081E0913301F4
:10058000F091340182FD1BC09081809136018F5F14
:100590008F7320913701821741F0E0913601F0E02E
:1005A000E35EFE4F958F80933601FF91EF919F910F
:1005B0008F912F910F900FBE0F901F9018958081F3
:1005C000F4CF1F920F920FB60F9211242F933F93E7
:1005D0008F939F93AF93BF938091130190911401D8
:1005E000A0911501B09116013091120123E0230F63
:1005F0002D3758F50196A11DB11D2093120180934E
:10060000130190931401A0931501B09316018091EA
:10061000170190911801A0911901B0911A0101964A
:10062000A11DB11D8093170190931801A09319018A
:10063000B0931A01BF91AF919F918F913F912F91EC
:100640000F900FBE0F901F90189526E8230F02966B
:10065000A11DB11DD2CFCF92DF92EF92FF920F93E7
:100660001F93E82FF92F05C0015011092109310905
:1006700061F1908196239417B9F305C001501109D7
:100680002109310911F1908196239413F7CFC12CE0
:10069000D12CE12CF12C0AC08FEFC81AD80AE80A35
:1006A000F80A0C151D052E053F0579F0808186237B
:1006B000841791F36C2D7D2D8E2D9F2D1F910F9101
:1006C000FF90EF90DF90CF90089560E070E080E0C1
:1006D00090E01F910F91FF90EF90DF90CF900895E1
:1006E000789484B5826084BD84B5816084BD85B50D
:1006F000826085BD85B5816085BD80916E00816019
:1007000080936E00109281008091810082608093BE
:1007100081008091810081608093810080918000C0
:100720008160809380008091B10084608093B100EB
:100730008091B00081608093B00080917A008460E5
:1007400080937A0080917A00826080937A00809111
:100750007A00816080937A0080917A00806880932B
:100760007A001092C100E0912D01F0912E0182E0FB
:100770008083E0912901F0912A011082E0912B0100
:10078000F0912C018BEC808310923501E0913101C6
:10079000F091320186E08083E0912F01F0913001E9
:1007A000808180618083E0912F01F0913001808110
:1007B00088608083E0912F01F09130018081806812
:1007C0008083E0912F01F091300180818F7D8083C3
:1007D00061E082E00E94E50161E083E00E94E501C2
:1007E00061E084E00E94E50161E085E00E94E501AE
:1007F00061E086E00E94E50161E087E00E94E5019A
:1008000061E08AE00E94E50160E08BE00E94E50182
:10081000C3E0D0E023E2A22EB12C35EA232E30E053
:10082000332E40E0842E40E0942E60E08AE00E9467
:100830009901CE010197F1F761E08AE00E949901E8
:10084000C5010197F1F760E08AE00E949901E9EBA8
:10085000F0E06491F1018491E82FF0E0EE0FFF1FCA
:10086000E057FF4F8591949100E412E42FE030E0CF
:10087000462F0E942B03611571058105910529F012
:100880006F5F7F4F8F4F9F4F9F70072E000C880B1D
:10089000990B0E944D0526E933E44BE05DE30E948D
:1008A000B10520E030E040E05FE30E94B1050E9426
:1008B00015056B0170931C0160931B0160E082E0E1
:1008C000FBE0CF16D1040CF467C00E94990161E0EF
:1008D00083E00E94990161E086E00E94E50161E009
:1008E00086E00E94990160E084E00E94990161E045
:1008F00085E00E94990161E087E00E94E50161E0E6
:1009000087E00E9499010D2C000CEE08FF084AE0D8
:10091000C701B601F7FE0DC06DE28DE191E00E94C6
:100920002C0166277727CB016C197D098E099F0959
:100930004AE00E943B020E9416022B013C0184EF18
:10094000C82EDD24D394E12CF12C0E9416026419E8
:10095000750986099709683E734081059105A8F3DA
:1009600021E0C21AD108E108F10888EE480E83E0C0
:10097000581E611C711CC114D104E104F10429F753
:100980008114910409F451CF0E94F600882309F4E0
:100990004CCF0E94000049CF0E94990160E083E0A3
:1009A0000E94990161E086E00E94E50160E086E036
:1009B0000E94990160E084E00E94990161E085E075
:1009C0000E94990161E087E00E94E50160E098CF14
:1009D000EDE1F1E01382128288EE93E0A0E0B0E056
:1009E00084839583A683B78384E091E09183808399
:1009F00085EC90E09587848784EC90E097878687E4
:100A000080EC90E0918B808B81EC90E0938B828BDB
:100A100082EC90E0958B848B86EC90E0978B868BB4
:100A2000118E128E138E148E08950E941C056894E8
:100A3000B1110C94AB0508950E94900588F09F5762
:100A400098F0B92F9927B751B0F0E1F0660F771FF2
:100A5000881F991F1AF0BA95C9F714C0B13091F0E8
:100A60000E94AA05B1E008950C94AA05672F782F7B
:100A70008827B85F39F0B93FCCF3869577956795AD
:100A8000B395D9F73EF490958095709561957F4F19
:100A90008F4F9F4F0895E89409C097FB3EF49095BF
:100AA0008095709561957F4F8F4F9F4F9923A9F047
:100AB000F92F96E9BB279395F695879577956795D6
:100AC000B795F111F8CFFAF4BB0F11F460FF1BC01A
:100AD0006F5F7F4F8F4F9F4F16C0882311F096E9AD
:100AE00011C0772321F09EE8872F762F05C066235B
:100AF00071F096E8862F70E060E02AF09A95660F14
:100B0000771F881FDAF7880F9695879597F90895CC
:100B100057FD9058440F551F59F05F3F71F04795AE
:100B2000880F97FB991F61F09F3F79F08795089593
:100B3000121613061406551FF2CF4695F1DF08C0B2
:100B4000161617061806991FF1CF869571056105CF
:100B500008940895E894BB2766277727CB0197F977
:100B600008950E94C4050C9435060E94270638F0AB
:100B70000E942E0620F0952311F00C941E060C9472
:100B8000240611240C94AB050E94880570F3959FF0
:100B9000C1F3950F50E0551F629FF001729FBB2774
:100BA000F00DB11D639FAA27F00DB11DAA1F649F10
:100BB0006627B00DA11D661F829F2227B00DA11DC3
:100BC000621F739FB00DA11D621F839FA00D611D49
:100BD000221F749F3327A00D611D231F849F600D6A
:100BE000211D822F762F6A2F11249F5750409AF093
:100BF000F1F088234AF0EE0FFF1FBB1F661F771F1F
:100C0000881F91505040A9F79E3F510580F00C94E9
:100C10001E060C94AB055F3FE4F3983ED4F3869533
:100C200077956795B795F795E7959F5FC1F7FE2B89
:100C3000880F911D9695879597F9089597F99F6765
:100C400080E870E060E008959FEF80EC0895002454
:100C50000A941616170618060906089500240A9421
:100C600012161306140605060895092E0394000CA7
:100C700011F4882352F0BB0F40F4BF2B11F460FF36
:100C800004C06F5F7F4F8F4F9F4F0895A1E21A2ED0
:100C9000AA1BBB1BFD010DC0AA1FBB1FEE1FFF1F20
:100CA000A217B307E407F50720F0A21BB30BE40B70
:100CB000F50B661F771F881F991F1A9469F76095B7
:100CC0007095809590959B01AC01BD01CF01089571
:100CD000EE0FFF1F0590F491E02D0994F894FFCFDB
:100CE000000000002C018C00B9007901EA00C80066
:020CF000DC0026
:00000001FF
